S021000050574D5F536572766F5F4D6F746F725F4650425F52413245332E737265635E
S11300000044002099000000F90E000011100000C7
S11300101110000011100000111000001110000058
S113002000000000000000000000000011100000AB
S11300301110000000000000111000001110000059
S113004002000000500000000300000068000000EF
S1130050144400203C450020000000033C450020DF
S11300603C45002000000003004000200040002028
S11300700000104000000203004000200040002067
S113008040040000000001033C4500203C450020E2
S1130090400400000000010300F004F800F05CFBE1
S11300A0FEE7D4D470B52048204901600024204ED6
S11300B02046B04700F074FE01252846B0471D488D
S11300C084804AF2005101801B49816040F2004261
S11300D08918C160194941F200020A8085802046CE
S11300E000F034F800F04AFE00F0B2FE0220B047FF
S11300F0284600F02BF8124D284601F003FA284652
S113010001F014FA0F4D1048401B8610B44203DA74
S113011001CD8047641CF9E700F070FF002070BC3B
S113012002BC8E4600F076BF08ED00E0000000003F
S113013035070000000D0040004000202061004011
S11301403C4500207217000072170000F8B5044601
S11301500F4DC0CD083D56B1787A844204D103CF07
S1130160091A083F01F0B8F90C37761EF3E7AE68B8
S1130170ED685EB1687B844205D105CD2968121A09
S1130180083D01F0AFF91035761EF2E7F8BDC04620
S10701904000000027
S1070400FFFFFFFFF8
S1070404DFCFFFFF44
S1130440F8B50446022074B169B1207838B1A82007
S113045020580021415E204600F07AF802E0204650
S113046000F030F800B1F8BD6420009040F2E831AB
S113047000F00AFDA820205806882746A837022540
S1130480415F721C16B28E420CDC2046314600F0ED
S11304905FF80028E7D1009840F2E83100F0F4FC5E
S11304A03868EDE70025415F204600F051F8002848
S11304B0D9D140F2E83040F2E83100F0E5FC2846BA
S11304C0F8BDD4D470B50446022054B10D4641B1F0
S11304D0207808B10E2070BD1C49204600F070F849
S11304E000B170BD26469C36F560204600F08DF8BC
S11304F00028F6D1204600F0B9F80028F1D12146B1
S1130500443188780978012902D120B1022003E01E
S113051018B1012000E00020306107CE12680C3EC3
S113052090470028DDD13269B1693068B368DB696E
S113053098470028D5D13068B168496888470028B1
S1130540CFD101202070002070BDC046B815000036
S1130550F8B5022490B307469C37FA6872B3007862
S113056001282AD10020135E0324994226DB0220AD
S1130570155EA94222DCC81AE91A8BB2117A012944
S1130580009300D1181ABD69F9694A1B0026314647
S1130590334600F040FD009A334600F057FD291819
S11305A0786981420AD23A693868BB68DB6901B06C
S11305B0049CA646F0BC01B0184707242046F8BDA9
S11305C0F8B505460220FDB10C46E9B128469C3039
S11305D000902E4624367821304600F07DFF616875
S11305E02022304600F07EFF6068C1692F46443700
S11305F05822384600F076FF2F6400994E60281D7B
S11306000860A06888600020F8BDF0B501460220AB
S113061051B30A469C32D46834B30020255EB3201B
S1130620C34305209D421FDB0223E65E40F26817A8
S1130630BE4219DCAE4217DDA588E688AE4213D966
S1130640247A012C10D8081D1468844201D018465D
S1130650F0BD5268084624308242184604D1443121
S1130660D069401A00D00220F0BDD4D4F0B585B0D2
S11306700446002004900390029002252CB39C347D
S1130680E06810B32068A1684A6A02A99047054649
S113069004986061E068019082880026039F3846D0
S11306A03146334600F0B7FC094A334600F0CEFC2D
S11306B0A0610198C08831463A46334600F0ABFC4D
S11306C0034A334600F0C2FCE061284605B0F0BDA1
S11306D040420F0010B558B104460078012809D1F2
S11306E021469C3108688968096B884720B110BD90
S11306F0022010BD072010BD0020207010BDD4D4EE
S1130700B0B50020064C074D20B920462946FFF716
S113071097FEF9E70248B0BC02BC8E46FFF7DABF89
S113072034440020C4150000002010B9FFF7E8FF8E
S1130730FBE7FEE7022804D010B906480121017046
S113074070470248024900F00DB8C046F04400204A
S1130750E016000090C07E4080B5FFF7E5FF002062
S113076080BDD4D480B5034A0260084600F004F882
S1130770002080BD54524F5070B5044600F014F868
S1130780002504262088854209D26168885B89197E
S1130790091F096800F020F808366D1CF2E770BCE8
S11307A001BC864600F032B8EFF31080012181F3DA
S11307B0108807490A6822B9064A002313704023A7
S11307C013700A68521C0A6080F310887047C04690
S11307D02C450020030D0440F0B5020ACB03094B5D
S11307E001D4C0B209E094011C19C0B28500665955
S11307F0054F3E4066510F40675192019A188000A0
S11308001150F0BD00080440FFFFFEFFEFF310801D
S1130810012181F3108808490A6812B10A68521E3E
S11308200A60096821B9054900220A7080220A7009
S113083080F310887047C0462C450020030D044007
S1130840F0B589B004460B7C4160012002469A4011
S1130850E2600346934323740A7C1302824A9A1883
S1130860A2604A6962618A690026A661E261CA6976
S11308700492EFF3108580F310884022D74305914A
S11308800A7C0AB13A4601E03A462032774B1968AD
S113089011401960196885F31088A1684AF2005262
S11308A00A60A168CE62A168CE63A1688E64059ACD
S11308B0117A490809061278032A01D1000409189B
S11308C0059D68680390A068C162204600F0D4F9D1
S11308D0A068049A9169C161A068D1690162039812
S11308E0401EA1688866A1684866106D039007964B
S11308F0F04306902878012805D038B9059D68682A
S11309004008471E0BE04037059D08E0059DE96857
S113091006AA0023204600F0BDF9049A069FA068A9
S11309204765A06887652878042803D3A068C7654D
S1130930A0680766106D07990291C8B9107801285C
S113094008D15178059800F0EBF9049A054603980C
S1130950054300E0039D9078012808D1D1780598DB
S113096000F0DEF9049A00042843039000E00395A4
S113097017462037483201926068C1690A4630320E
S113098048310320062E13D00B78F340DB070CD03C
S1130990042E034600D03346032E00D104239B00CB
S11309A0A568EB1815686D1EDD64121D761CE9E759
S11309B0A06800218163A068882281500498006D9A
S11309C008B1039A06E0787840073A78520312187F
S11309D003980243059D0198007810B10520000595
S11309E001E055200004A36818642878012803D185
S11309F0A068C164A0680165A06842630299080602
S1130A0009040143C81CA2681063481CA168086358
S1130A10A068E168C16012202856697C144D224602
S1130A20A84708203856B9782246A84709203856DE
S1130A30F9782246A8470A20385639792246A84729
S1130A400B20385679792246A8470C203856B979B4
S1130A502246A8470D203856F9792246A84705486A
S1130A602060002009B0F0BD0080074008700440F9
S1130A70470D0000545047008168C068486000205A
S1130A8070478168C0688860002070478168C068CA
S1130A90C8600020704770B50121CA0741688368A7
S1130AA0C9690E1D70CE15435D61164383689E614E
S1130AB014438268146182680B69536280684969CF
S1130AC08162002070BD80B500F0D6F8002080BDA2
S1130AD083684A1E9A6643681B782BB98368490861
S1130AE0491E5965836899658168CB6ADB0707D11C
S1130AF04A6655210904826811648168C068C86027
S1130B0000207047F0B587B01646044600200590D3
S1130B10C043049004AA20460291334600F0BAF878
S1130B20032337461F40A068016B0391059DA5B9B7
S1130B30310701D5042100E002210193B207049A90
S1130B4001D43B4604E08B00C018C264A0680123B2
S1130B50194389004018C264019B70060ED4022E0A
S1130B60284612D1284685B104AA1E4601232046F0
S1130B70029900F08FF83346059806E001208005BD
S1130B80A1680A6C02430A6428461904039E32468B
S1130B908A4329041143012F00D00E461FB11906C0
S1130BA08E4301063143A0680163002007B0F0BD05
S1130BB0042A01D0134600E00323032A00D10423AE
S1130BC09A0080688018491EC16400207047D4D4FC
S1130BD010B58268526E521C8A608068C26A0948E5
S1130BE003680948006801240C7007241C405B0159
S1130BF05B0F9840E040D20D0E231340D84048606C
S1130C00002010BD20E00140344500208268D26AF3
S1130C10012313400B718068806C086000207047CA
S1130C2041618361C26100207047D4D470B5044629
S1130C30416812200856CE690E4DA8472820305628
S1130C40A847283601203056A84702203056A84726
S1130C5003203056A84704203056A84705203056B4
S1130C60A84700202060A168E2688A60A168486300
S1130C7070BDC046050D000081680122D2070A61DB
S1130C8081684A6181688A61816800224A62806859
S1130C9082627047F8B500924F424F418668B26E47
S1130CA0521C01249142254600D200252F43012FD6
S1130CB01AD1756BDB07DB0EDD4010262E40734224
S1130CC073410C262E40351F6E426E4140680078F9
S1130CD0032800D83346184601B1204601280BD119
S1130CE0914205D2002004E0481E00990860F8BD36
S1130CF001201840012801D1022000E003200099BE
S1130D004860F8BD10B5002806D4044600F05CF92C
S1130D10A000024900220A5010BDC0463045002000
S1130D200078022804D0032801D1032003E009B18C
S1130D30092000E006208A0109011143091840F244
S1130D40001008437047002801D400F04DB97047E3
S1130D5008490A7890420CD0074A137813B993795A
S1130D60DB07FCD00A78D206FCD408700878C006E9
S1130D70FCD47047A0E0014036E001400548817989
S1130D8000688900044A51584001400FC14003489B
S1130D900160704720E001400044002034450020F9
S1130DA0F8B52148C01C21490880214F01243C7119
S1130DB0204848F2000100251F4A204B036042608E
S1130DC08160C5600161FFF7D9FF1D4E307810B90D
S1130DD07078800723D0307838B93470C820214621
S1130DE000F052F830780128FCD1757035704AF261
S1130DF000561448032101702846FFF7A9FF124842
S1130E008575017FC907FCD044743C7040F2001121
S1130E1001608571FFF7B2FF04480680F8BD40F217
S1130E20E83000F013F8E2E700A5FFFFFEE301401D
S1130E30C4FF7E400044002000127A00006CDC02F3
S1130E4080E40140A5E0014020E001407047D4D493
S1130E50B0B50C4C00252571C820012100F014F810
S1130E60257020780028FCD12078022101432170CC
S1130E7020788007FCD4A01E057001780029FCD1DD
S1130E80B0BDC0462440044030B40246144804684F
S1130E901448B0FBF4F34A4340F2E8301249134DCE
S1130EA08A4203D2AC4205D8042104E0AC4208D8FB
S1130EB0042407E006215043B0FBF3F0B0FBF1F04B
S1130EC006E006246343B2FBF3F28A4203D25043A2
S1130ED018B930BC70470020C04330BC00F008B8DB
S1130EE03445002000CA9A3B388941000048E80193
S1130EF001380028FCD17047F8B50B4908880E8CDE
S1130F000640B7B20024094D0D2C0AD03846E04003
S1130F10C00703D0296809B1204688472D1D641CE9
S1130F20F2E701480682F8BD20610040F844002041
S1130F3080000449425801231B049A4342504058FC
S1130F407047C0460063004010B50446FFF7F0FF49
S1130F501F20204001218140BFF35F8F6009800082
S1130F60014A815010BDC04680E200E0F0B5032480
S1130F700346A343074C1D598607F60EFF27B740C7
S1130F80BD438901C9B2B1402943195180000249C6
S1130F900A50F0BD00E400E0304500201F2101406C
S1130FA001228A4040098000014942507047C046EE
S1130FB000E100E010B50446FFF7C6FF204610BC70
S1130FC002BC8E46FFF7EABF1F21014001228A407E
S1130FD04009800003494250BFF34F8FBFF36F8F26
S1130FE07047C04680E100E010B50446FFF7BEFF3D
S1130FF0204610BC02BC8E46FFF7DCBF02480078D6
S113100008B10249086070472017000000630040DF
S113101000BE70477047B0B5514343435918030CA1
S1131020140C1D466543491992B2534380B242439E
S1131030150CEB181D0C49199BB260431818030CCE
S1131040C918000492B28018B0BDD4D440B584B09D
S113105002AE009600F004F8029A039B04B040BD6F
S1131060F0B587B01D4606460C9C002915D00F46E6
S1131070002A029201951BD00490002D3CD02846F2
S113108000F02AF90546384600F026F9291A2029E5
S113109061D3002C09D0C0C407E0002D4ED0002C31
S11310A003D00027C0C43846EEE000200746EBE03A
S11310B0002D5AD0002869D0691E0D4200D185E068
S11310C029460546084600F007F90690384600F020
S11310D003F90699091A1F29DBD20094481C2B46F0
S11310E0C3401F22511A2A463C468C401C43069496
S11310F0C7408A40002347E0501E024253D0009468
S1131100104600F0E9F80446384600F0E5F8201AE5
S113111021300023202823D01D461F2865D8049C95
S11311202146C1402022131A22463C469C400C43CF
S11311300694C7409A4005972B4666E0054630461C
S11311401146164600F0F6F8002C2AD00022464339
S1131150A91B06C425E00094481C0023202805D1BF
S113116020200697059332464FE08DE0049C1D46EF
S11311702346C3401F22511A22463C468C401C433E
S113118006942B46C7408A4005973EE038462946D8
S113119000F0D0F8002C04D000224543791B2260D3
S11311A06160002770E0002C049B02D000211840ED
S11311B003C4012A304667D0002A6ED05042104042
S11311C03C494143C80E3CA10B5C67E0002C02D0B3
S11311D0394026606160002D59D068422840354965
S11311E04143C80E34A1085C52E001462039049EF4
S11311F03246CA4040231B1A3C469C401443CF400D
S11312009E400697059533462246002703930546DC
S11312100698C30F05994900CB180492D10F4200D8
S113122054180298211A06911A4601998A41059286
S1131230DE43E24382184E41002E00D40593284633
S113124000D40694F40F03994A003E461643CA0F8D
S113125004994B009A18401E27463346D6D10120E4
S1131260C14315460022881C5241F30F13406A0003
S11312709F187300009A002A03D0069D1560059DEF
S113128055600B401C432043394607B0F0BD202075
S1131290C740002138460F46F6E720231F211A468F
S11312A00A40049ED6409943780088403043DF408A
S11312B0EAE7C04631B57C0700011C021D0E180385
S11312C01E16140F191104081F1B0D1715131007F0
S11312D01A0C12060B050A0970B510230022010C22
S11312E0194600D011464B40D840030408241B0E75
S11312F0234600D013465C40E04004060425240F36
S11313002C4600D014466540E84005070226AD0F80
S1131310354600D015462A467240D040321A40085D
S11313200126F6430643701C10405918091949193F
S1131330081870BD012925D300D17047884201D215
S113134000207047024684465FA00130130C8B4294
S113135001D31A00A038130A8B4201D31A00503863
S113136013098B4201D31A00283893088B4201D306
S11313701A00143853088B4200D30A38020060461E
S113138000231047002080B500F0A5F880BDC046BA
S113139000BFCA07904200D3801A5B418A0790427B
S11313A000D3801A5B414A07904200D3801A5B4104
S11313B00A07904200D3801A5B41CA06904200D3C8
S11313C0801A5B418A06904200D3801A5B414A0628
S11313D0904200D3801A5B410A06904200D3801ADF
S11313E05B41CA05904200D3801A5B418A05904252
S11313F000D3801A5B414A05904200D3801A5B41B6
S11314000A05904200D3801A5B41CA04904200D37B
S1131410801A5B418A04904200D3801A5B414A04DB
S1131420904200D3801A5B410A04904200D3801A90
S11314305B41CA03904200D3801A5B418A03904205
S113144000D3801A5B414A03904200D3801A5B4167
S11314500A03904200D3801A5B41CA02904200D32F
S1131460801A5B418A02904200D3801A5B414A028F
S1131470904200D3801A5B410A02904200D3801A42
S11314805B41CA01904200D3801A5B418A019042B9
S113149000D3801A5B414A01904200D3801A5B4119
S11314A00A01904200D3801A5B41CA00904200D3E3
S11314B0801A5B418A00904200D3801A5B414A0043
S11314C0904200D3801A5B410A00904200D3801AF4
S11314D05B4118467047704780B50A46002100F00A
S11314E00AF880BD10B500239A4203D0CC5CC454E2
S11314F05B1CF9E710BD00239A4202D0C1545B1C67
S1131500FAE7704710B504460449054AFFF7EAFFB5
S1131510044820180449FFF7DFFF10BD4004000011
S11315200000000000000000000000000249401A12
S1131530024908607047C046080000003845002092
S11315400000010000000000000000000000000096
S11315500000000000000000000000000000000087
S11315600000FFFFFFFFFFFFDFDFDFDFDFDF000043
S11315700000000000000000000000000000000067
S11315800000000000000000000000000000000057
S113159000000000000000000200000000A60E0091
S11315A00000000080BB000000FFDF00000000001E
S11315B000000000401500001444002098150000AD
S11315C0EC160000A6FF5A00E803D0070000D4D4AC
S11315D000840000000000000084000001000000FE
S11315E00084000002000000008400000C000000E1
S11315F0008400000D000000008400000E000000C4
S1131600004400000F000000000C01040001000071
S1131610000C010401010000000C0104020100009F
S1131620000C010403010000040C0000040100008C
S1131630000C010008010000000C01050901000074
S1131640000C01050A010000040C00000B0100005D
S1131650040C00000C010000004000000002000027
S1131660040C000006020000040C00000702000045
S1131670040C000008020000000401030C02000036
S1131680000C010000030000040C00000103000032
S1131690040C000002030000000401070004000021
S11316A00004010701040000000400000704000016
S11316B0104C000008040000040C000009040000A1
S11316C0040C000000050000040C00000D090000DB
S11316D0040C00000E090000040C00000F090000B7
S11316E022000000D01500000000000041080000A6
S11316F0790A0000830A00008D0A0000970A00009E
S1131700C70A0000D10A0000050B0000B10B00005D
S1131710D10B00000D0C0000210C00002D0C00006A
S113172000D4D4D400000406362E342E3000427582
S1131730696C7420776974682052656E657361738F
S113174020416476616E63656420466C65786962E5
S11317506C6520536F667477617265205061636BAA
S11317606167652076657273696F6E20362E342E3C
S1051770300043
S903009963
