S021000050574D5F536572766F5F4D6F746F725F4650425F5241304C312E737265635B
S113000000440020E90000009D0C00006B0D00007E
S11300106B0D00006B0D00006B0D00006B0D0000FC
S11300200000000000000000000000006B0D000054
S11300306B0D0000000000006B0D00006B0D000054
S113004000000000000000000000000000000000AC
S1130050000000000000000000000000000000009C
S1130060000000000000000000000000000000008C
S1130070000000000000000000000000000000007C
S1130080000000000000000000000000ED09000076
S113009002000000A000000003000000B8000000FF
S11300A014440020104500200000000310450020E7
S11300B01045002000000003004000200040002004
S11300C00000104000000203004000200040002017
S11300D040040000000001031045002010450020EA
S11300E0400400000000010300F004F800F034FBB9
S11300F0FEE7D4D470B51848184901600024184E9E
S11301002046B04700F048FD01252846B047204668
S113011000F02EF800F0EAFC00F095FD0220B04754
S1130120284600F025F80F4D284601F097F8284698
S113013001F0A8F80C4D0D48401B8610B44203DAB8
S113014001CD8047641CF9E700F00EFE002070BC6E
S113015002BC8E4600F00BBE08ED00E0000000007B
S11301603507000010450020CE140000CE14000016
S1130170F8B504460F4DC0CD083D56B1787A844297
S113018004D103CF091A083F01F052F80C37761E48
S1130190F3E7AE68ED685EB1687B844205D105CDB6
S11301A02968121A083D01F049F81035761EF2E765
S10B01B0F8BDC04690000000F8
S1070400FFFFFFFFF8
S1070404F7AFC1FF8A
S1130440F8B5044602206CB161B1207830B1E06C9B
S11304500021415E204600F069F802E0204600F0E9
S11304602DF800B1F8BD6425284640F2E83100F0CB
S1130470EBFBE06C06880227C15F721C16B28E4249
S11304800CDC2046314600F051F80028EAD1284619
S113049040F2E83100F0D8FBE06CEDE70025415F65
S11304A0204600F043F80028DCD140F2E83040F266
S11304B0E83100F0C9FB2846F8BDD4D4B0B50446F1
S11304C0022054B10D4641B1207808B10E20B0BDD0
S11304D01549204600F061F800B1B0BDE56420463E
S11304E000F098F80028F8D1204600F0C1F8002860
S11304F0F3D1012525652246403207CA1268904788
S11305000028EAD1226DA16D206CA36CDB699847A9
S11305100028E2D1206CA16C496888470028DCD10E
S113052025700020B0BDC046C8120000F8B50224F2
S113053088B30546C26C72B3287801282AD10020FA
S1130540135E0324994226DB0220165EB14222DCAC
S1130550C81AF11A8BB2117A0129009300D1181A22
S1130560AE6DE96D8A1B002739463B4600F000FC5E
S1130570009A3B4600F016FC3118686D81420AD29D
S11305802A6D286CAB6CDB6901B0049CA646F0BCF8
S113059001B0184707242046F8BDF0B585B00446DD
S11305A00220ACB30D4699B32646183628213046AE
S11305B000F03EFE69682022304600F03FFE686885
S11305C0C769F8790490B8790390387902907879FA
S11305D00190FA78B97838787F78231D236423460C
S11305E03833636366643B02181809041206511811
S11305F00818A0630198000202994018039909049D
S1130600049A120651180818E063A868A064002030
S113061005B0F0BD70B50146022041B3CB6C33B3D5
S113062000201C5EB320C243052094421FDB02223B
S11306309D5E40F26816B54219DCA54217DD9C8820
S1130640DD88A54213D91B7A012B10D8081D0B6C29
S1130650834201D0104670BD4B6C0846183083426B
S1130660104604D13831D869401A00D0022070BD38
S1130670F0B585B004460020049003900290022552
S113068024B3E06C10B3206CA16C4A6A02A99047B1
S1130690054604986065E06C019082880026039FFB
S11306A038463146334600F063FB0A4A334600F0CD
S11306B079FBA0650198C08831463A46334600F07C
S11306C057FB044A334600F06DFBE065284605B04D
S11306D0F0BDC04640420F0010B548B10446007852
S11306E0012807D1206CA16C096B884720B110BD8B
S11306F0022010BD072010BD0020207010BDD4D4EE
S1130700B0B50020064C074D20B920462946FFF716
S113071097FEF9E70248B0BC02BC8E46FFF7DCBF87
S113072028440020D4120000002010B9FFF7E8FF8D
S1130730FBE7FEE7022804D010B906480121017046
S113074070470248024900F059B9C0468844002065
S11307504014000090C07E4080B5FFF7E5FF002004
S113076080BDD4D4F8B50D46044641604869E060C4
S113077088692061374E0420F084087C01273946BB
S11307808140E8696172EFF3108187F31088324A7F
S11307901368BB431360126881F3108800788003E8
S11307A02E494018297C490088536868297806290D
S11307B000D1401C2A494018297C4900294A885202
S11307C0287C38B1607AF18D8143F185607AB18DEE
S11307D08143B185607A318D81433185607A718D31
S11307E08143718512202856697C224600F001F964
S11307F0E869416841B340F208422B78062B00D1E6
S1130800521C00788003821808784300F2524A8808
S1130810144DEA528740FAB2F38D1343F385B38D36
S113082093434D7985401D43B585338D93430A79B0
S113083082401A433285A07A3843A07207200856B2
S11308408979224600F0D5F8607AA17A01432172B1
S11308500020F8BD10270A40087004400108000079
S1130860FEFF000000260A4041680A780649062A6D
S113087005D1827A0B8913430B81007A00E00020B2
S1130880088000207047C04632270A40017A044A93
S11308901180807AD1888143D18000207047C0467E
S11308A034270A4006490A8843681B7CDA40D20789
S11308B003D0027A8A80007A488000207047C046BC
S11308C030270A4006207047064A40680378062B02
S11308D000D1521C5118007C4000034A8152002070
S11308E07047C046FEFF000000260A405000024A3E
S11308F0815200207047C04600260A4006207047F7
S113090010B54368DA691B7C5B000A4C1B5B9C1CBA
S11309108C6040680078062801D1581C886006481D
S1130920036812780020087092000424D440E34045
S11309304B6010BD00260A400845002010B54068F1
S1130940007C054A138EC34001241C400C714000F6
S1130950805A0860002010BD00270A40C16002616F
S113096000207047B0B50446007A0C490880A07A8C
S1130970CA888243CA80616812200856CD6900F093
S11309800FF8A07A38B1686828B10721405600F002
S113099007F80020A0720020B0BDC04634270A40EA
S11309A010B5002806D4044600F0C4F9A00002499A
S11309B000220A5010BDC046B84400201FB50F21C4
S11309C00907EFF30382120651188915064A535892
S11309D0DA6842B10024029401A9087103941869E9
S11309E00190084690471FBDB84400200420FFF73B
S11309F0E5BF002801D400F0ADB9704780B5034AC3
S1130A000260084600F004F8002080BD54524F50A4
S1130A1070B5044600F01CF8002004210B4A23881A
S1130A2098420DD263685D5AEEB276002D0A6D01CC
S1130A30AD195B181B1F1B68AB520831401CEEE755
S1130A4070BC01BC864600F01BB8C04600020A40D8
S1130A50EFF31080012181F3108807490A6822B955
S1130A60064A00231370402313700A68521C0A605C
S1130A7080F310887047C046B444002040030A4005
S1130A80EFF31080012181F3108808490A6812B13C
S1130A900A68521E0A60096821B9054900220A70D1
S1130AA080220A7080F310887047C046B444002046
S1130AB040030A400C490A789209904213D04A78BC
S1130AC0012313434B70022807D000228A563F2388
S1130AD0DB439A4201DB80220A7080010870487867
S1130AE0FE2202404A7070470AC27E400C48C17A16
S1130AF0890706D4017A890708D40A490968007865
S1130B0007E00849807A30B1083105E005494968B1
S1130B104078C14001E01031096803480160704722
S1130B2018E801400044002008450020F0B4194CA6
S1130B30E67AFE252E40E672E67AB607FCD428B1A2
S1130B4001260228374618D0012815D1667A2E408E
S1130B506672667AB607FCD4267A30B10120064361
S1130B602672207A8007FCD50EE02E402672207A69
S1130B708007FCD4217007E00027A772E07A304395
S1130B80E072E07A8007FCD56270A370F0BCFFF7D6
S1130B90ADBFC04618E80140F8B52148C01C214C3F
S1130BA02080214848F200010025204A204B0360A0
S1130BB042608160C5600161FFF798FF1D4E1820F7
S1130BC030701D48017889B10121CA051B490B68A1
S1130BD093430B600B681A4B1F787F243C401C70B6
S1130BE0104C0B6813430B6009680570307B08B127
S1130BF0357303E040F2E83000F024F84AF200577D
S1130C000320FFF757FF3572B07CC007FCD00020EB
S1130C10014602460346FFF789FF2780F8BDC04618
S1130C2000A5FFFFFEE801400044002000093D004C
S1130C300048E80100E8014024E80140087004404D
S1130C400B2C0A407047704702460F4800680F4B50
S1130C50B3FBF0F34A4340F2E8300D498A4204D230
S1130C605043B0FBF3F0800805E09B00B2FBF3F2C5
S1130C708A4204D2504308B100F00CB870470020F7
S1130C80C04300F007B8C0460845002000CA9A3B9C
S1130C903889410001380028FCD17047F8B50B4968
S1130CA008880E8C0640B7B20024094D092C0AD0DE
S1130CB03846E040C00703D0296809B12046884778
S1130CC02D1D641CF2E701480682F8BD2061004036
S1130CD090440020F0B503240346A343074C1D5958
S1130CE08607F60EFF27B740BD438901C9B2B1405C
S1130CF029431951800002490A50F0BD00E400E084
S1130D00B84400201F21014001228A40400980008C
S1130D10014942507047C04600E100E01F210140F4
S1130D2001228A4041098900014BCA50FFF7EABFFA
S1130D3080E200E01F21014001228A404009800036
S1130D4003494250BFF34F8FBFF36F8F7047C046C4
S1130D5080E100E010B50446FFF7BCFF204610BC5C
S1130D6002BC8E46FFF7DABF704700BE704770477B
S1130D70B0B5514343435918030C140C1D46654345
S1130D80491992B2534380B24243150CEB181D0C1F
S1130D9049199BB260431818030CC918000492B295
S1130DA08018B0BD40B584B002AE009600F004F8DF
S1130DB0029A039B04B040BDF0B587B01D460646B9
S1130DC00C9C002915D00F46002A029201951BD0D5
S1130DD00490002D3CD0284600F02AF905463846F8
S1130DE000F026F9291A202961D3002C09D0C0C4A7
S1130DF007E0002D4ED0002C03D00027C0C4384695
S1130E00EEE000200746EBE0002D5AD0002869D020
S1130E10691E0D4200D185E029460546084600F0CA
S1130E2007F90690384600F003F90699091A1F29B4
S1130E30DBD20094481C2B46C3401F22511A2A4679
S1130E403C468C401C430694C7408A40002347E03C
S1130E50501E024253D00094104600F0E9F80446B4
S1130E60384600F0E5F8201A21300023202823D04A
S1130E701D461F2865D8049C2146C1402022131A10
S1130E8022463C469C400C430694C7409A40059732
S1130E902B4666E0054630461146164600F0F6F845
S1130EA0002C2AD000224643A91B06C425E0009446
S1130EB0481C0023202805D120200697059332469C
S1130EC04FE08DE0049C1D462346C3401F22511A67
S1130ED022463C468C401C4306942B46C7408A401D
S1130EE005973EE03846294600F0D0F8002C04D09F
S1130EF000224543791B22606160002770E0002CCA
S1130F00049B02D00021184003C4012A304667D054
S1130F10002A6ED0504210403C494143C80E3CA1C7
S1130F200B5C67E0002C02D0394026606160002D24
S1130F3059D06842284035494143C80E34A1085C61
S1130F4052E001462039049E3246CA4040231B1A0F
S1130F503C469C401443CF409E400697059533463B
S1130F6022460027039305460698C30F05994900B6
S1130F70CB180492D10F420054180298211A0691FA
S1130F801A4601998A410592DE43E24382184E4192
S1130F90002E00D40593284600D40694F40F039938
S1130FA04A003E461643CA0F04994B009A18401E45
S1130FB027463346D6D10120C14315460022881C5A
S1130FC05241F30F13406A009F187300009A002ADD
S1130FD003D0069D1560059D55600B401C432043BE
S1130FE0394607B0F0BD2020C740002138460F46DF
S1130FF0F6E720231F211A460A40049ED64099434F
S1131000780088403043DF40EAE7C04631B57C07CA
S113101000011C021D0E18031E16140F19110408DA
S11310201F1B0D17151310071A0C12060B050A09BE
S113103070B510230022010C194600D011464B4014
S1131040D840030408241B0E234600D013465C40FA
S1131050E04004060425240F2C4600D014466540C5
S1131060E84005070226AD0F354600D015462A464E
S11310707240D040321A40080126F6430643701CE1
S11310801040591809194919081870BD012925D3A8
S113109000D17047884201D200207047024684463E
S11310A05FA00130130C8B4201D31A00A038130A3D
S11310B08B4201D31A00503813098B4201D31A0012
S11310C0283893088B4201D31A00143853088B42F2
S11310D000D30A380200604600231047002080B580
S11310E000F0A5F880BDC04600BFCA07904200D3F7
S11310F0801A5B418A07904200D3801A5B414A07F9
S1131100904200D3801A5B410A07904200D3801AB0
S11311105B41CA06904200D3801A5B418A06904222
S113112000D3801A5B414A06904200D3801A5B4187
S11311300A06904200D3801A5B41CA05904200D34C
S1131140801A5B418A05904200D3801A5B414A05AC
S1131150904200D3801A5B410A05904200D3801A62
S11311605B41CA04904200D3801A5B418A049042D6
S113117000D3801A5B414A04904200D3801A5B4139
S11311800A04904200D3801A5B41CA03904200D300
S1131190801A5B418A03904200D3801A5B414A0360
S11311A0904200D3801A5B410A03904200D3801A14
S11311B05B41CA02904200D3801A5B418A0290428A
S11311C000D3801A5B414A02904200D3801A5B41EB
S11311D00A02904200D3801A5B41CA01904200D3B4
S11311E0801A5B418A01904200D3801A5B414A0114
S11311F0904200D3801A5B410A01904200D3801AC6
S11312005B41CA00904200D3801A5B418A0090423D
S113121000D3801A5B414A00904200D3801A5B419C
S11312200A00904200D3801A5B4118467047704709
S113123080B50A46002100F00AF880BD10B50023ED
S11312409A4203D0CC5CC4545B1CF9E710BD002364
S11312509A4202D0C1545B1CFAE7704710B50446A9
S11312600449054AFFF7EAFF044820180449FFF738
S1131270DFFF10BD4004000000000000000000007B
S1131280000000000249401A024908607047C04645
S1131290080000000C4500200100D0070000FFDF1B
S11312A0000000009812000006000000409C0000AE
S11312B0040000000000000000FFDF000000000048
S11312C000000000A012000014440020A812000036
S11312D04C140000A6FF5A00E803D0070000D4D441
S11312E0000C000000000000000C000001000000E1
S11312F0040000000200000000800000080000005C
S11313000080000009000000008000000A000000C6
S1131310008000000B000000008000000C000000B2
S1131320008000000D000000008000000E0000009E
S1131330008000000F000000040200000001000013
S11313401000000001010000100000000201000074
S1131350100000000301000004000000040100006C
S11313600004000005010000040400000601000060
S11313700001000008010000100000000901000045
S1131380100000000A010000100000000B01000022
S1131390000C00000C0100000040000000020000EE
S11313A0100000000102000010000000060200000E
S11313B0000200000702000004020000080200000E
S11313C0100000000C020000100000000D020000DC
S11313D0000000000E020000000000000F020000E8
S11313E000010000000300001000000001030000E1
S11313F010000000020300000500000000040000CB
S113140005000000010400001000000007040000B3
S1131410100000000804000010000000090400008F
S11314201000000000050000000100000D0900008C
S1131430000100000E090000100000000F09000068
S11314402C000000E012000000000000650700000E
S1131450690800008D080000A5080000C508000008
S11314608D080000C9080000ED080000FD08000018
S1131470010900003D0900005D0900006509000044
S113148000000406362E342E30004275696C742038
S1131490776974682052656E657361732041647660
S11314A0616E63656420466C657869626C6520537F
S11314B06F667477617265205061636B6167652044
S11114C076657273696F6E20362E342E3000FE
S90300E913
